{
  "_format": "hh-sol-artifact-1",
  "contractName": "Calend3",
  "sourceName": "contracts/Calend3.sol",
  "abi": [
    {
      "inputs": [],
      "stateMutability": "nonpayable",
      "type": "constructor"
    },
    {
      "inputs": [
        {
          "internalType": "string",
          "name": "title",
          "type": "string"
        },
        {
          "internalType": "uint256",
          "name": "startTime",
          "type": "uint256"
        },
        {
          "internalType": "uint256",
          "name": "endTime",
          "type": "uint256"
        }
      ],
      "name": "createAppointment",
      "outputs": [],
      "stateMutability": "payable",
      "type": "function"
    },
    {
      "inputs": [],
      "name": "getAppointments",
      "outputs": [
        {
          "components": [
            {
              "internalType": "string",
              "name": "title",
              "type": "string"
            },
            {
              "internalType": "address",
              "name": "attendee",
              "type": "address"
            },
            {
              "internalType": "uint256",
              "name": "startTime",
              "type": "uint256"
            },
            {
              "internalType": "uint256",
              "name": "endTime",
              "type": "uint256"
            },
            {
              "internalType": "uint256",
              "name": "ammountPaid",
              "type": "uint256"
            }
          ],
          "internalType": "struct Calend3.Appointment[]",
          "name": "",
          "type": "tuple[]"
        }
      ],
      "stateMutability": "view",
      "type": "function"
    },
    {
      "inputs": [],
      "name": "getRate",
      "outputs": [
        {
          "internalType": "uint256",
          "name": "",
          "type": "uint256"
        }
      ],
      "stateMutability": "view",
      "type": "function"
    },
    {
      "inputs": [],
      "name": "owner",
      "outputs": [
        {
          "internalType": "address payable",
          "name": "",
          "type": "address"
        }
      ],
      "stateMutability": "view",
      "type": "function"
    },
    {
      "inputs": [
        {
          "internalType": "uint256",
          "name": "_rate",
          "type": "uint256"
        }
      ],
      "name": "setRate",
      "outputs": [],
      "stateMutability": "nonpayable",
      "type": "function"
    }
  ],
  "bytecode": "0x608060405234801561001057600080fd5b5033600160006101000a81548173ffffffffffffffffffffffffffffffffffffffff021916908373ffffffffffffffffffffffffffffffffffffffff160217905550610e83806100616000396000f3fe60806040526004361061004a5760003560e01c806334fcf4371461004f57806359c35bdf14610078578063679aefce146100945780638da5cb5b146100bf57806396b80d08146100ea575b600080fd5b34801561005b57600080fd5b5061007660048036038101906100719190610694565b610115565b005b610092600480360381019061008d9190610807565b6101af565b005b3480156100a057600080fd5b506100a96103ce565b6040516100b69190610885565b60405180910390f35b3480156100cb57600080fd5b506100d46103d7565b6040516100e191906108e1565b60405180910390f35b3480156100f657600080fd5b506100ff6103fd565b60405161010c9190610aec565b60405180910390f35b600160009054906101000a900473ffffffffffffffffffffffffffffffffffffffff1673ffffffffffffffffffffffffffffffffffffffff163373ffffffffffffffffffffffffffffffffffffffff16146101a5576040517f08c379a000000000000000000000000000000000000000000000000000000000815260040161019c90610b6b565b60405180910390fd5b8060008190555050565b6101b7610562565b8381600001819052508281604001818152505081816060018181525050600054603c84846101e59190610bba565b6101ef9190610c1d565b6101f99190610c4e565b8160800181815250508060800151341015610249576040517f08c379a000000000000000000000000000000000000000000000000000000000815260040161024090610d1a565b60405180910390fd5b6000600160009054906101000a900473ffffffffffffffffffffffffffffffffffffffff1673ffffffffffffffffffffffffffffffffffffffff163460405161029190610d6b565b60006040518083038185875af1925050503d80600081146102ce576040519150601f19603f3d011682016040523d82523d6000602084013e6102d3565b606091505b5050905080610317576040517f08c379a000000000000000000000000000000000000000000000000000000000815260040161030e90610dcc565b60405180910390fd5b6002829080600181540180825580915050600190039060005260206000209060050201600090919091909150600082015181600001908051906020019061035f9291906105a7565b5060208201518160010160006101000a81548173ffffffffffffffffffffffffffffffffffffffff021916908373ffffffffffffffffffffffffffffffffffffffff16021790555060408201518160020155606082015181600301556080820151816004015550505050505050565b60008054905090565b600160009054906101000a900473ffffffffffffffffffffffffffffffffffffffff1681565b60606002805480602002602001604051908101604052809291908181526020016000905b8282101561055957838290600052602060002090600502016040518060a001604052908160008201805461045490610e1b565b80601f016020809104026020016040519081016040528092919081815260200182805461048090610e1b565b80156104cd5780601f106104a2576101008083540402835291602001916104cd565b820191906000526020600020905b8154815290600101906020018083116104b057829003601f168201915b505050505081526020016001820160009054906101000a900473ffffffffffffffffffffffffffffffffffffffff1673ffffffffffffffffffffffffffffffffffffffff1673ffffffffffffffffffffffffffffffffffffffff168152602001600282015481526020016003820154815260200160048201548152505081526020019060010190610421565b50505050905090565b6040518060a0016040528060608152602001600073ffffffffffffffffffffffffffffffffffffffff1681526020016000815260200160008152602001600081525090565b8280546105b390610e1b565b90600052602060002090601f0160209004810192826105d5576000855561061c565b82601f106105ee57805160ff191683800117855561061c565b8280016001018555821561061c579182015b8281111561061b578251825591602001919060010190610600565b5b509050610629919061062d565b5090565b5b8082111561064657600081600090555060010161062e565b5090565b6000604051905090565b600080fd5b600080fd5b6000819050919050565b6106718161065e565b811461067c57600080fd5b50565b60008135905061068e81610668565b92915050565b6000602082840312156106aa576106a9610654565b5b60006106b88482850161067f565b91505092915050565b600080fd5b600080fd5b6000601f19601f8301169050919050565b7f4e487b7100000000000000000000000000000000000000000000000000000000600052604160045260246000fd5b610714826106cb565b810181811067ffffffffffffffff82111715610733576107326106dc565b5b80604052505050565b600061074661064a565b9050610752828261070b565b919050565b600067ffffffffffffffff821115610772576107716106dc565b5b61077b826106cb565b9050602081019050919050565b82818337600083830152505050565b60006107aa6107a584610757565b61073c565b9050828152602081018484840111156107c6576107c56106c6565b5b6107d1848285610788565b509392505050565b600082601f8301126107ee576107ed6106c1565b5b81356107fe848260208601610797565b91505092915050565b6000806000606084860312156108205761081f610654565b5b600084013567ffffffffffffffff81111561083e5761083d610659565b5b61084a868287016107d9565b935050602061085b8682870161067f565b925050604061086c8682870161067f565b9150509250925092565b61087f8161065e565b82525050565b600060208201905061089a6000830184610876565b92915050565b600073ffffffffffffffffffffffffffffffffffffffff82169050919050565b60006108cb826108a0565b9050919050565b6108db816108c0565b82525050565b60006020820190506108f660008301846108d2565b92915050565b600081519050919050565b600082825260208201905092915050565b6000819050602082019050919050565b600081519050919050565b600082825260208201905092915050565b60005b83811015610962578082015181840152602081019050610947565b83811115610971576000848401525b50505050565b600061098282610928565b61098c8185610933565b935061099c818560208601610944565b6109a5816106cb565b840191505092915050565b60006109bb826108a0565b9050919050565b6109cb816109b0565b82525050565b6109da8161065e565b82525050565b600060a08301600083015184820360008601526109fd8282610977565b9150506020830151610a1260208601826109c2565b506040830151610a2560408601826109d1565b506060830151610a3860608601826109d1565b506080830151610a4b60808601826109d1565b508091505092915050565b6000610a6283836109e0565b905092915050565b6000602082019050919050565b6000610a82826108fc565b610a8c8185610907565b935083602082028501610a9e85610918565b8060005b85811015610ada5784840389528151610abb8582610a56565b9450610ac683610a6a565b925060208a01995050600181019050610aa2565b50829750879550505050505092915050565b60006020820190508181036000830152610b068184610a77565b905092915050565b600082825260208201905092915050565b7f4f6e6c7920746865206f776e65722063616e2073657420746865207261746500600082015250565b6000610b55601f83610b0e565b9150610b6082610b1f565b602082019050919050565b60006020820190508181036000830152610b8481610b48565b9050919050565b7f4e487b7100000000000000000000000000000000000000000000000000000000600052601160045260246000fd5b6000610bc58261065e565b9150610bd08361065e565b925082821015610be357610be2610b8b565b5b828203905092915050565b7f4e487b7100000000000000000000000000000000000000000000000000000000600052601260045260246000fd5b6000610c288261065e565b9150610c338361065e565b925082610c4357610c42610bee565b5b828204905092915050565b6000610c598261065e565b9150610c648361065e565b9250817fffffffffffffffffffffffffffffffffffffffffffffffffffffffffffffffff0483118215151615610c9d57610c9c610b8b565b5b828202905092915050565b7f4e6f7420656e6f75676820657468657220746f206d616b6520616e206170706f60008201527f696e746d656e7400000000000000000000000000000000000000000000000000602082015250565b6000610d04602783610b0e565b9150610d0f82610ca8565b604082019050919050565b60006020820190508181036000830152610d3381610cf7565b9050919050565b600081905092915050565b50565b6000610d55600083610d3a565b9150610d6082610d45565b600082019050919050565b6000610d7682610d48565b9150819050919050565b7f4661696c656420746f2073656e64204574686572000000000000000000000000600082015250565b6000610db6601483610b0e565b9150610dc182610d80565b602082019050919050565b60006020820190508181036000830152610de581610da9565b9050919050565b7f4e487b7100000000000000000000000000000000000000000000000000000000600052602260045260246000fd5b60006002820490506001821680610e3357607f821691505b60208210811415610e4757610e46610dec565b5b5091905056fea26469706673582212207137549471a583998ed030f950bd1545175086fc84e109106a05a39f43b37a5364736f6c63430008090033",
  "linkReferences": {},
  "deployedLinkReferences": {}
}